:020000040800F2
:1000000000000820E52D0008030A0008050A000882
:10001000070A0008090A00080B0A0008000000008F
:100020000000000000000000000000000D0A0008B1
:100030000F0A000800000000110A0008130A000857
:10004000352E0008352E0008352E0008352E000804
:10005000352E0008352E0008352E0008352E0008F4
:10006000352E0008352E0008352E0008352E0008E4
:10007000352E0008352E00081D0A0008352E000810
:10008000352E0008352E0008352E0008352E0008C4
:10009000352E0008352E0008352E0008352E0008B4
:1000A000352E0008352E0008352E0008352E0008A4
:1000B0002D0A0008352E0008352E0008352E0008C0
:1000C000352E0008352E0008352E0008352E000884
:1000D000352E0008352E0008352E0008352E000874
:1000E000352E0008352E0008352E0008352E000864
:1000F000352E0008352E0008352E0008352E000854
:10010000352E0008352E0008352E0008352E000843
:10011000352E0008352E0008352E0008352E000833
:10012000352E0008352E0008352E0008352E000823
:10013000352E0008352E0008352E0008352E000813
:10014000352E0008352E0008352E0008352E000803
:10015000352E0008352E0008352E0008352E0008F3
:10016000352E0008352E0008352E0008352E0008E3
:10017000352E0008352E0008352E0008000000003E
:10018000352E0008352E0008352E0008352E0008C3
:10019000352E0008352E0008352E0008352E0008B3
:1001A000352E0008352E0008352E0008352E0008A3
:1001B000352E0008352E0008352E0008352E000893
:1001C000352E0008352E000800000000352E0008EE
:1001D000352E0008352E0008352E0008352E000873
:1001E000352E0008352E0008352E0008352E000863
:0801F000352E0008352E000831
:1002000010B5054C237833B9044B13B10448AFF350
:1002100000800123237010BD740000200000000046
:100220000037000808B5034B1BB103490348AFF37F
:10023000008008BD000000007800002000370008A2
:10024000034613F8012B002AFBD1181A0138704716
:1002500001F0FF01102A2BDB10F0070F08D010F877
:10026000013B013A8B422DD010F0070F42B3F6D17B
:10027000F0B441EA012141EA014122F007047FF094
:1002800000070023F0E80256083C85EA010586EAEB
:10029000010685FA47F5A3FA87F586FA47F6A5FA27
:1002A00087F68EB9EED1F0BC01F0FF0102F0070233
:1002B00032B110F8013B013A83EA010313B1F8D1DE
:1002C0000020704701387047002D06BF35460338BF
:1002D000073815F0010F07D1013015F4807F02BFF8
:1002E000013015F4C03F0130F0BC0138704700BF49
:1002F00053B94AB9002908BF00281CBF4FF0FF318D
:100300004FF0FF3000F074B9ADF1080C6DE904CE88
:1003100000F006F8DDF804E0DDE9022304B07047E0
:100320002DE9F047089D04468E46002B4DD18A42A8
:10033000944669D9B2FA82F252B101FA02F3C2F1DB
:10034000200120FA01F10CFA02FC41EA030E94406C
:100350004FEA1C48210CBEFBF8F61FFA8CF708FB8D
:1003600016E341EA034306FB07F199420AD91CEB65
:10037000030306F1FF3080F01F81994240F21C8197
:10038000023E63445B1AA4B2B3FBF8F008FB1033DF
:1003900044EA034400FB07F7A7420AD91CEB040414
:1003A00000F1FF3380F00A81A74240F207816444E4
:1003B000023840EA0640E41B00261DB1D440002369
:1003C000C5E900433146BDE8F0878B4209D9002DCD
:1003D00000F0EF800026C5E9000130463146BDE857
:1003E000F087B3FA83F6002E4AD18B4202D38242C1
:1003F00000F2F980841A61EB030301209E46002D70
:10040000E0D0C5E9004EDDE702B9FFDEB2FA82F2C4
:10041000002A40F09280A1EB0C014FEA1C471FFA22
:100420008CFE0126200CB1FBF7F307FB131140EA09
:1004300001410EFB03F0884208D91CEB010103F1D6
:10044000FF3802D2884200F2CB804346091AA4B298
:10045000B1FBF7F007FB101144EA01440EFB00FE6C
:10046000A64508D91CEB040400F1FF3102D2A645D1
:1004700000F2BB800846A4EB0E0440EA03409CE770
:10048000C6F12007B34022FA07FC4CEA030C20FA1D
:1004900007F401FA06F31C43F9404FEA1C4900FA3D
:1004A00006F3B1FBF9F8200C1FFA8CFE09FB1811BA
:1004B00040EA014108FB0EF0884202FA06F20BD92D
:1004C0001CEB010108F1FF3A80F08880884240F27D
:1004D0008580A8F102086144091AA4B2B1FBF9F0C1
:1004E00009FB101144EA014100FB0EFE8E4508D9BC
:1004F0001CEB010100F1FF346CD28E456AD9023841
:10050000614440EA0840A0FB0294A1EB0E01A14225
:10051000C846A64656D353D05DB1B3EB080261EB93
:100520000E0101FA07F722FA06F3F1401F43C5E96D
:10053000007100263146BDE8F087C2F12003D840A3
:100540000CFA02FC21FA03F3914001434FEA1C47E5
:100550001FFA8CFEB3FBF7F007FB10360B0C43EAD7
:10056000064300FB0EF69E4204FA02F408D91CEB87
:10057000030300F1FF382FD29E422DD90238634485
:100580009B1B89B2B3FBF7F607FB163341EA034125
:1005900006FB0EF38B4208D91CEB010106F1FF3874
:1005A00016D28B4214D9023E6144C91A46EA00466B
:1005B00038E72E46284605E70646E3E61846F8E6FD
:1005C0004B45A9D2B9EB020864EB0C0E0138A3E746
:1005D0004646EAE7204694E74046D1E7D0467BE727
:1005E000023B614432E7304609E76444023842E79F
:1005F000704700BF30B589B000240394049405947B
:1006000006940794164B1A6B42F010021A631A6B89
:1006100002F010020092009A1A6B42F080021A63F4
:100620001A6B02F080020192019A1A6B42F00102E9
:100630001A631B6B03F001030293029B094D2246D0
:100640000421284601F014FD04230393012304939D
:100650000594069403A9284601F01AFC09B030BDA0
:10066000003802400010024000B583B00A4B1A6BFC
:1006700042F400121A631B6B03F400130193019BF5
:10068000002211460E2000F09FFA0E2000F0D2FA50
:1006900003B05DF804FB00BF0038024010B586B01F
:1006A000002301930293039304930593154B5A6C13
:1006B00042F001025A645B6C03F001030093009B5B
:1006C0005F23ADF804304FF6E85303930E4C01A9B5
:1006D000204600F03FFD236823F080032360A268DA
:1006E0000A4B1340A360636823F070036360636880
:1006F00023F470036360A36823F08003A36006B053
:1007000010BD00BF0038024000000140F8BFFEFFEE
:1007100030B589B00024049405940694079401949C
:10072000029403940E4D4FF080432B605F236B6067
:10073000AC6042F20F73EB602C61AC61284600F0B4
:100740003BFC4FF48053049304A9284600F05CFC62
:100750000194039401A9284600F0C4FC09B030BDFF
:100760005C01002008B50948094B03604FF4E133F0
:10077000436000238360C36003610C224261836194
:10078000C3610362436202F0D3FA08BD9C010020FA
:10079000004C004008B50948094B03604FF4E133B1
:1007A000436000238360C36003610C224261836164
:1007B000C3610362436202F0BBFA08BD1C02002061
:1007C0000078004030B5B9B0342200212BA802F0E7
:1007D00057FB002426942794289429942A94902245
:1007E000214602A802F04CFB1F4B1A6C42F08052CB
:1007F0001A641B6C03F080530093009B1B4A136820
:1008000023F4404343F480431360136803F44043EC
:100810000193019B02252B9501232E9310232F93E7
:10082000319532940823339360233493359536956C
:100830002BA800F017FD01F037FE0F232693279514
:1008400028944FF4805329932A94032126A800F07A
:1008500045FF4FF4905302931694199402A801F0A7
:1008600015F839B030BD00BF0038024000700040BC
:1008700008B501F07DFEFFF7A5FFFFF7BBFEFFF710
:10088000F3FEFFF70BFFFFF743FFFFF76BFFFFF7E9
:1008900081FF4FF47A7001F089FE194B1A6842F01B
:1008A00001021A6000225A624FF47A7001F07EFE53
:1008B0004FF0FF3305221349134802F0AEF9134BF2
:1008C0001870B8B1124C2046FFF7BAFC4FF0FF3356
:1008D00082B221460F4802F0A0F94FF47A7001F07D
:1008E00065FE04220C49084801F08CFE0B4800F01C
:1008F000F3F9FEE70A4B064C0FCB07C42370E1E780
:1009000000000140000000201C0200200500002023
:10091000C80000209C010020900000205C01002005
:100920001837000808B50A4B834200D008BD094BB0
:100930001B68622B04DC074A136801331360F5E778
:10094000044B00221A600421034801F097FBF2E7F0
:100950005C0100209C0200200010024010B51F4BDB
:100960005A6A1F490A60002159621E4C1E492046DE
:1009700002F08EFA2046FFF763FC4FF0FF3382B29D
:1009800021461A4802F049F9194B1B78542B05D01F
:1009900036221749174801F035FE10BD144B5B781D
:1009A000FA2BF5D1124B9B78FF2BF1D1104BDB7852
:1009B000322BEDD1104B1A6801321A600F492046D4
:1009C00002F066FA2046FFF73BFC4FF0FF3382B29D
:1009D0002146064802F021F9DAE700BF0000014095
:1009E000A4020020C8000020283700089C01002035
:1009F000900000201C020020A002002034370008D4
:100A000070477047FEE7FEE7FEE7FEE77047704776
:100A1000704708B501F0B8FD08BD000008B50248F0
:100A200001F054FC08BD00BFFC00002008B50248DE
:100A300000F06CF908BD00BF5C01002082B00A4BD9
:100A40001A6C42F080521A641A6C02F080520092C2
:100A5000009A5A6C42F480425A645B6C03F48043FF
:100A60000193019B02B07047003802400368B3F164
:100A7000804F00D0704700B583B003F50E331A6C79
:100A800042F001021A641B6C03F001030193019B05
:100A9000002211461C2000F097F81C2000F0CAF834
:100AA00003B05DF804FB000010B58AB00023059385
:100AB00006930793089309930368334A934205D03A
:100AC0000446324A934222D00AB010BD304B1A6C11
:100AD00042F400221A641A6C02F400220192019A74
:100AE0001A6B42F001021A631B6B03F001030293BD
:100AF000029B4FF4C05305930223069303230893EC
:100B00000623099305A9234801F0C2F9DCE7204B2D
:100B10001A6C42F080421A641A6C02F0804203920E
:100B2000039A1A6B42F010021A631B6B03F0100356
:100B30000493049B4FF4C07305930223069303238D
:100B400008930823099305A9134801F0A1F9134854
:100B5000134B03604FF02063436000238360C36046
:100B60004FF48062026143618361C3614FF40032DC
:100B70000262436201F00AFB18B9084BE3669C630A
:100B8000A2E7FFF73DFFF8E7004C00400078004087
:100B9000003802400000024000100240FC0000202B
:100BA000586002400649CB6823F4E0631B041B0C29
:100BB000000200F4E0600343024A1A43CA6070472F
:100BC00000ED00E00000FA0500B5174BDB68C3F349
:100BD0000223C3F1070CBCF1040F28BF4FF0040C33
:100BE00003F1040EBEF1060F14D9033B4FF0FF3E94
:100BF0000EFA0CFC21EA0C0199400EFA03F322EAEA
:100C000003031943002807DB0901C9B2074B195434
:100C10005DF804FB0023E9E700F00F000901C9B209
:100C2000034B1954F4E700BF00ED00E000E400E0DE
:100C300014ED00E0002807DB00F01F02400901234B
:100C40009340024A42F82030704700BF00E100E0C4
:100C50000138B0F1807F0BD24FF0E0235861054A94
:100C6000F02182F823100020986107221A61704752
:100C70000120704700ED00E010B4036A046A24F01C
:100C800001040462846924F0F00C4CEA021223F09F
:100C90000A030B43826103625DF8044B704710B492
:100CA000046A24F0100404628469036A24F4704C1A
:100CB0004CEA023223F0A00343EA0113826103628B
:100CC0005DF8044B7047836823F070030B4343F0D7
:100CD00007038360704700000268D36843F0010394
:100CE000D36002689168064B0B40062B18BFB3F522
:100CF000803F03D0136843F0010313600020704766
:100D000007000100704770477047704710B50446F0
:100D100003681A6912F0020F11D0DA6812F0020F9C
:100D20000DD06FF002021A610123037703689B69FB
:100D300013F0030F79D0FFF7E6FF00232377236832
:100D40001A6912F0040F12D0DA6812F0040F0ED0F4
:100D50006FF004021A610223237723689B6913F45E
:100D6000407F68D02046FFF7CEFF0023237723681B
:100D70001A6912F0080F12D0DA6812F0080F0ED0BC
:100D80006FF008021A61042323772368DB6913F0EC
:100D9000030F57D02046FFF7B6FF002323772368C1
:100DA0001A6912F0100F12D0DA6812F0100F0ED07C
:100DB0006FF010021A61082323772368DB6913F4AC
:100DC000407F46D02046FFF79EFF0023237723680D
:100DD0001A6912F0010F03D0DA6812F0010F3FD147
:100DE00023681A6912F0800F03D0DA6812F0800FBE
:100DF0003DD123681A6912F4807F03D0DA6812F0BB
:100E0000800F3BD123681A6912F0400F03D0DA68D3
:100E100012F0400F39D123681A6912F0200F03D065
:100E2000DA6812F0200F37D110BDFFF76BFF2046B4
:100E3000FFF76AFF81E72046FFF764FF2046FFF7D0
:100E400063FF92E72046FFF75DFF2046FFF75CFF58
:100E5000A3E72046FFF756FF2046FFF755FFB4E70C
:100E60006FF001021A612046FFF75CFDB8E76FF0F2
:100E700080021A61204600F06AF9BAE76FF48072C6
:100E80001A61204600F064F9BCE76FF040021A6175
:100E90002046FFF73AFFBEE76FF020021A612046B6
:100EA00000F054F9C0E7000030B503683B4A9042B7
:100EB00014BF4FF0000E4FF0010EB0F1804F14BF81
:100EC00072464EF00102AAB9354CA04214BF00246C
:100ED0000124344DA8420DD064B904F1804404F5D6
:100EE0008234A04214BF0024012405F50065A84205
:100EF00000D01CB123F070034C682343002A33D187
:100F0000274A904214BF00220122264CA0422BD037
:100F100052BB02F1804202F58232904214BF00229D
:100F2000012204F50064A0421ED0EAB91E4A904294
:100F300014BF0022012204F59A34A04214D09AB9B9
:100F40001A4A904214BF0022012204F50064A04214
:100F50000AD04AB9164A904214BF00220122A4F5D1
:100F60009634A04200D022B123F4407CCB6843EAFF
:100F70000C0323F080034A69134303608A68C2624A
:100F80000A6882620B4A904214BF73464EF0010316
:100F90000BB10B6903630123436130BD00000140C5
:100FA00000080040000400400044014000180040D8
:100FB0000020004000040140B0B110B5044690F894
:100FC0003D3063B1022384F83D30214651F8040BD3
:100FD000FFF76AFF012384F83D30002010BD80F840
:100FE0003C30FFF743FDEDE70120704710B4846803
:100FF00024F47F4C42EA03220A4342EA0C02826054
:101000005DF8044B7047000090F83C30012B64D031
:1010100010B50446012380F83C30022380F83D30AF
:10102000026890682E4B034093600B68602B40D0A1
:1010300022D8402B47D00BD9502B0ED1CA68496813
:101040002068FFF719FE50212068FFF73CFE04E0FE
:10105000202B0CD008D9302B09D0012384F83D3047
:10106000002084F83C0010BD0BB1102BF5D11946BF
:101070002068FFF728FEF0E7702B0ED0B3F5005F75
:10108000EBD1CB684A6889682068FFF7AFFF226818
:10109000936843F480439360DFE7CB684A688968CC
:1010A0002068FFF7A3FF2268936843F077039360FB
:1010B000D3E7CA6849682068FFF7F1FD602120681E
:1010C000FFF701FEC9E7CA6849682068FFF7D4FD49
:1010D00040212068FFF7F7FDBFE70220704700BFFF
:1010E0008800FEFF90F83C30012B28D070B401231B
:1010F00080F83C30022380F83D3003685A689C68D1
:10110000104E114DAB4218BFB34203D122F470020E
:101110004D682A4322F070020D682A4324F0800CA7
:10112000896841EA0C015A6003689960012380F8DC
:101130003D30002380F83C30184670BC70470220D8
:10114000704700BF00000140000401407047704735
:101150007047000030B503683B4A904214BF4FF01F
:10116000000E4FF0010EB0F1804F14BF72464EF0EA
:101170000102AAB9354CA04214BF00240124344D09
:10118000A8420DD064B904F1804404F58234A04231
:1011900014BF0024012405F50065A84200D01CB14D
:1011A00023F070034C682343002A33D1274A90422E
:1011B00014BF00220122264CA0422BD052BB02F1C8
:1011C000804202F58232904214BF0022012204F5CF
:1011D0000064A0421ED0EAB91E4A904214BF002209
:1011E000012204F59A34A04214D09AB91A4A9042C6
:1011F00014BF0022012204F50064A0420AD04AB9BB
:10120000164A904214BF00220122A4F59634A0424F
:1012100000D022B123F4407CCB684CEA0303036086
:101220008A68C2620A8882620D4A904214BF73467D
:101230004EF001030BB10B7C0363436943F00103E0
:101240004361002030BD00BF0000014000080040A5
:10125000000400400044014000180040002000400D
:1012600000040140002800F0DA8170B582B0044625
:10127000036813F0010F29D0954B9B6803F00C0312
:10128000042B1AD0924B9B6803F00C03082B0FD051
:101290006368B3F5803F40D0002B54D18C4B1A6863
:1012A00022F480321A601A6822F480221A6039E02F
:1012B000874B5B6813F4800FEAD0854B1B6813F4EF
:1012C000003F03D06368002B00F0AB81236813F06C
:1012D000020F74D07E4B9B6813F00C0F5ED07C4BDA
:1012E0009B6803F00C03082B53D0E368002B00F03D
:1012F0008980774A136843F00103136001F050F9C5
:101300000546734B1B6813F0020F72D101F048F9C8
:10131000401B0228F5D9032088E16D4A136843F485
:101320008033136063682BB301F03AF90546684BCC
:101330001B6813F4003FC9D101F032F9401B642847
:10134000F5D9032072E1B3F5A02F09D0604B1A68DC
:1013500022F480321A601A6822F480221A60E1E7CF
:101360005B4B1A6842F480221A601A6842F4803299
:101370001A60D7E701F014F90546554B1B6813F4C2
:10138000003FA3D001F00CF9401B6428F5D90320DD
:101390004CE14F4B5B6813F4800FA6D14C4B1B689C
:1013A00013F0020F03D0E368012B40F03C81484A60
:1013B000136823F0F803216943EAC103136023682B
:1013C00013F0080F46D0636983B3414A536F43F06B
:1013D0000103536701F0E4F805463D4B5B6F13F0E2
:1013E000020F37D101F0DCF8401B0228F5D90320A9
:1013F0001CE1374A136823F0F803216943EAC1036B
:101400001360DCE7324A136823F00103136001F034
:10141000C7F805462E4B1B6813F0020FCFD001F022
:10142000BFF8401B0228F5D90320FFE0284A536F7C
:1014300023F00103536701F0B3F80546244B5B6FBB
:1014400013F0020F06D001F0ABF8401B0228F5D9CB
:101450000320EBE0236813F0040F7DD01C4B1B6CC2
:1014600013F0805F1ED11A4B1A6C42F080521A643E
:101470001B6C03F080530193019B0125154B1B68E6
:1014800013F4807F10D0A368012B25D0002B3BD113
:101490000F4B1A6F22F001021A671A6F22F0040232
:1014A0001A671EE00025E9E70A4A136843F48073CF
:1014B000136001F075F80646064B1B6813F4807F35
:1014C000E1D101F06DF8801B6428F5D90320ADE06F
:1014D0000038024000700040564A136F43F0010389
:1014E0001367A36833B301F05BF80646514B1B6FDB
:1014F00013F0020F2FD101F053F8801B41F2883313
:101500009842F3D9032091E0052B09D0494B1A6F7B
:1015100022F001021A671A6F22F004021A67E0E74C
:10152000444B1A6F42F004021A671A6F42F001022C
:101530001A67D6E701F034F806463E4B1B6F13F0EE
:10154000020F08D001F02CF8801B41F2883398423A
:10155000F3D903206AE0F5B9A369002B65D0354AB9
:10156000926802F00C02082A62D0022B19D0314A8C
:10157000136823F08073136001F012F804462D4BBA
:101580001B6813F0007F48D001F00AF8001B022806
:10159000F5D903204AE0274A136C23F080531364E3
:1015A000DAE7244A136823F08073136000F0F8FF31
:1015B0000546204B1B6813F0007F06D000F0F0FFBB
:1015C000401B0228F5D9032030E0E369226A134367
:1015D000626A43EA8213A26A5208013A43EA02436A
:1015E000E26A43EA0263226B43EA0273114A5360E0
:1015F000136843F08073136000F0D2FF04460D4B74
:101600001B6813F0007F06D100F0CAFF001B022800
:10161000F5D903200AE0002008E0002006E00120C0
:101620007047012002E0012000E0002002B070BD00
:101630000120FBE70038024008B5254B9B6803F00A
:101640000C03042B3FD0082B3FD1214B5A6802F0EA
:101650003F025B6813F4800F12D01D4B5968C1F331
:1016600088111C480023A1FB0001FEF741FE184B26
:101670005B68C3F3014301335B00B0FBF3F025E08B
:10168000134B5968C1F3881C4FEA4C11B1EB0C00A5
:101690006EEB0E0E4FEA8E1343EA90638101091A36
:1016A00063EB0E03DB0043EA5173C90011EB0C0C32
:1016B00043F10003990200234FEA8C2041EA9C5138
:1016C000FEF716FED3E7034800E0034808BD00BF5D
:1016D0000038024040787D010024F400002800F02A
:1016E0009F8070B50D460446514B1B6803F00F03F5
:1016F0008B420BD24E4A136823F00F030B43136047
:10170000136803F00F038B4240F08C80236813F0C2
:10171000020F17D013F0040F04D0464A936843F425
:10172000E0539360236813F0080F04D0414A936894
:1017300043F4604393603F4A936823F0F003A16849
:101740000B439360236813F0010F31D06368012BC2
:1017500020D0022B25D0374A126812F0020F63D036
:1017600034498A6822F0030213438B6000F018FFAB
:101770000646304B9B6803F00C036268B3EB820FA4
:1017800016D000F00DFF801B41F288339842F0D94B
:10179000032044E0274A126812F4003FE0D1012000
:1017A0003DE0244A126812F0007FD9D1012036E0D2
:1017B0001F4B1B6803F00F03AB420AD91C4A136886
:1017C00023F00F032B431360136803F00F03AB42A6
:1017D0002CD1236813F0040F06D0164A936823F423
:1017E000E053E1680B439360236813F0080F07D0C0
:1017F000104A936823F46043216943EAC10393606C
:10180000FFF71AFF0B4B9B68C3F303130A4AD35C21
:10181000D8400A4B1860002000F084FE002070BD04
:10182000012070470120FAE70120F8E70120F6E7E0
:10183000003C024000380240503700080C000020F5
:10184000014B1868704700BF0C00002008B5FFF777
:10185000F7FF044B9B68C3F38223034AD35CD84051
:1018600008BD00BF003802406037000808B5FFF728
:10187000E7FF044B9B68C3F34233034AD35CD84071
:1018800008BD00BF0038024060370008F0B583B0E3
:101890000446066816F001060DD0B54B9A6822F48E
:1018A00000029A609A68416B0A439A60436B002B6E
:1018B00000F055810026256815F4002511D0AC4AAA
:1018C000D2F88C3023F44013E16B0B43C2F88C3018
:1018D000E36BB3F5801F00F04481002B00F04381DF
:1018E0000025236813F4801F0FD0A14AD2F88C3052
:1018F00023F44003216C0B43C2F88C30236CB3F506
:10190000800F00F0328103B90125236813F0807F36
:1019100000D0012613F0200F40F02C81236813F033
:10192000100F0CD0924BD3F88C2022F08072C3F8A9
:101930008C20D3F88C20A16B0A43C3F88C20236839
:1019400013F4804F08D08A4AD2F8903023F4403301
:10195000616E0B43C2F89030236813F4004F08D037
:10196000834AD2F8903023F44023A16E0B43C2F88F
:101970009030236813F4803F08D07D4AD2F890302D
:1019800023F44013E16E0B43C2F89030236813F444
:10199000003F08D0764AD2F8903023F44003216FFC
:1019A0000B43C2F89030236813F0400F08D0704A00
:1019B000D2F8903023F00303616C0B43C2F89030EF
:1019C000236813F0800F08D0694AD2F8903023F0D2
:1019D0000C03A16C0B43C2F89030236813F4807F92
:1019E00008D0634AD2F8903023F03003E16C0B4307
:1019F000C2F89030236813F4007F08D05C4AD2F814
:101A0000903023F0C003216D0B43C2F8903023685F
:101A100013F4806F08D0564AD2F8903023F4407304
:101A2000616D0B43C2F89030236813F4006F08D047
:101A30004F4AD2F8903023F44063A16D0B43C2F8B3
:101A40009030236813F4805F08D0494AD2F8903070
:101A500023F44053E16D0B43C2F89030236813F434
:101A6000005F08D0424AD2F8903023F44043216E00
:101A70000B43C2F89030236813F4800F08D03C4A1F
:101A8000D2F8903023F08063A16F0B43C2F89030FE
:101A9000236813F4001F0DD0354AD2F8903023F09C
:101AA0000063E16F0B43C2F89030E36FB3F1006F56
:101AB00000F0C680236813F0080F00D0012513F44E
:101AC000802F08D02A4AD2F8903023F04073616FFB
:101AD0000B43C2F89030236813F4000F09D0244A56
:101AE000D2F8903023F08053D4F880100B43C2F822
:101AF0009030236813F0806F09D01D4AD2F89030DF
:101B000023F00053D4F884100B43C2F890302368BC
:101B100013F0006F09D0164AD2F88C3023F000730E
:101B2000D4F888100B43C2F88C30236813F0805F20
:101B300009D00F4AD2F88C3023F08063D4F88C108F
:101B40000B43C2F88C30002E7CD12368B3F1007FA8
:101B500078D0012D00F00981002003B0F0BD0126EE
:101B6000A9E60126B9E60125BBE60126CBE600BFC2
:101B700000380240874B1A6C42F080521A641B6C8A
:101B800003F080530193019B834A136843F48073ED
:101B9000136000F005FD07467F4B1B6813F4807F40
:101BA00006D100F0FDFCC01B6428F5D90320D4E762
:101BB000784B1B6F13F4407315D0226B02F4407204
:101BC0009A4210D0734B1A6F22F44072196F41F48D
:101BD00080311967196F21F4803119671A671B6FFB
:101BE00013F0010F12D1236B03F44072B2F5407F62
:101BF0001DD0684A936823F4F813936065490B6F0E
:101C0000226BC2F30B0213430B6787E600F0C8FC9C
:101C10000746604B1B6F13F0020FE4D100F0C0FCCD
:101C2000C01B41F288339842F3D9032095E7594805
:101C3000826822F4F812594919400A438260DDE7AC
:101C4000012537E7534A136823F08063136000F0DF
:101C5000A7FC06464F4B1B6813F0006F06D000F040
:101C60009FFC801B6428F5D9032076E7236813F0D6
:101C7000010F13D0636B8BB9464AD2F88430D2F887
:101C80008410606803F4403343EA801301F070610C
:101C90000B43A16843EA0173C2F88430236813F44C
:101CA000002F03D0E26BB2F5801F06D013F4801F23
:101CB0001ED0236CB3F5800F1AD1364AD2F8843087
:101CC000D2F88410606803F4403343EA8013E0687C
:101CD00043EA006301F0E0410B43C2F88430D2F8DC
:101CE0008C3023F01F03616A01390B43C2F88C303A
:101CF000236813F0807F11D0264AD2F88400D2F8EE
:101D00008410666823691B0443EA861300F0706040
:101D1000034301F0E0410B43C2F88430236813F021
:101D2000007F0DD0626823691B0443EA8213E268D6
:101D300043EA0263A26843EA0273164AC2F8843097
:101D4000144A136843F08063136000F029FC0646D0
:101D5000104B1B6813F0006F7FF4FBAE00F020FC0B
:101D6000801B6428F4D90320F7E60A4A136823F09D
:101D70008053136000F014FC0546064B1B6813F0FB
:101D8000005F0DD000F00CFC401B6428F5D9032047
:101D9000E3E600BF0038024000700040FFFCFF0F88
:101DA000236813F4002F01D0E26B22B113F4801FDB
:101DB0001DD0236CDBB9354AD2F88830D2F88810B0
:101DC000606903F4403343EA8013A06943EA006387
:101DD00001F0E0410B43C2F88830D2F88C3023F494
:101DE000F853A16A013943EA0123C2F88C30236811
:101DF00013F4001F03D0E36FB3F1006F31D02368F9
:101E000013F0080F19D0214AD2F88810D2F8883080
:101E1000606903F4403343EA801301F070610B43BF
:101E2000E16943EA0173C2F88830D2F88C3023F4B8
:101E30004033E16A0B43C2F88C30144A136843F014
:101E40008053136000F0ACFB0446104B1B6813F08A
:101E5000005F19D100F0A4FB001B6428F5D9032012
:101E60007BE60A4AD2F88800D2F888106569236AAE
:101E70001B0443EA851300F07060034301F0E04166
:101E80000B43C2F88830BAE7002066E6003802400B
:101E900000230F2B00F2E280F0B583B03AE0092274
:101EA00000E00022AA40324302346D4D45F8242060
:101EB0006C4A14686FEA0C0224EA0C054E6816F4AA
:101EC000803F01D04CEA0405664C2560646802EA54
:101ED00004054E6816F4003F01D04CEA0405614C3D
:101EE0006560A46802EA04054E6816F4801F01D0FC
:101EF0004CEA04055B4CA560E46822404D6815F48B
:101F0000001F01D04CEA0402564CE26001330F2B53
:101F100000F2A28001229A400C6804EA020C32EA24
:101F20000404F3D14C68122C18BF022C10D1DD0828
:101F3000083550F8257003F00704A6000F24B440BC
:101F400027EA040E0C69B44044EA0E0440F8254028
:101F500006684FEA430E032404FA0EF4E54326EA2A
:101F600004064C6804F0030404FA0EF434430460DD
:101F70004C68661E112C18BF012E01D9122C0FD1EE
:101F800086682E40CC6804FA0EF4344384604468BA
:101F900024EA02024C68C4F300149C4014434460D9
:101FA000C26815408A6802FA0EF22A43C2604A6883
:101FB00012F0805FAAD02C4A546C44F480445464DC
:101FC000526C02F480420192019A9C08A51C244A9A
:101FD00052F8256003F0030295000F22AA4026EA7A
:101FE0000206224A90423FF45CAF02F580629042C2
:101FF00022D002F58062904220D002F580629042A9
:102000001ED002F5806290421CD002F580629042A0
:102010001AD002F58062904218D002F58062904298
:1020200016D002F58062904214D002F58062904290
:102030003FF435AF0A2235E7012233E7022231E7C8
:1020400003222FE704222DE705222BE7062229E7AA
:10205000072227E7082225E703B0F0BD704700BF3D
:1020600000380140003C01400038024000000240BE
:102070000AB181617047090481617047436931EA9F
:10208000030301D08161704709048161704730B456
:1020900005682C6824F480242C60046863608368DD
:1020A000402B05D0036899600368DA6030BC704744
:1020B00003689A600368D960F8E7000010B401680B
:1020C000CAB2103A0A4BA3FB02431B09094CE35C5A
:1020D000C3655F2A07D9084B0B4004338365806DC5
:1020E0005DF8044B7047044B0B408365F7E700BF76
:1020F000ABAAAAAA4837000800FCFFFF836A8269DE
:1021000092B9012B0AD0022B02D00BB100207047EC
:10211000C36A13F0807F28D100207047C36AB3F1EF
:10212000C07F24D000207047B2F5005F09D0022B99
:1021300025D9032B25D1C36A13F0807F23D100203A
:102140007047032B03D8DFE803F01404140A0020BF
:102150007047C36A13F0807F0DD100207047C36AB7
:10216000B3F1C07F09D000207047012070470120E3
:1021700070470120704701207047012070470120FF
:1021800070470020704701207047000070B504467A
:1021900000F006FA002C5BD00546002384F83430AA
:1021A000022384F835302268136823F0010313609A
:1021B00023681A6812F0010F0AD000F0F1F9431BEE
:1021C000052BF5D920236365032084F8350070BD05
:1021D0001A68204810406168A2680A43E1680A430F
:1021E00021690A4361690A43A1690A43E1690A4313
:1021F000216A0A430243616A04291ED01A602668D4
:10220000756925F00705636A1D43042B07D1A36A8E
:102210001D43E36A1BB12046FFF770FF90B975615B
:102220002046FFF74BFFE26D3F2393408360002081
:102230006065012384F83530C9E7E16A206B01430A
:102240000A43DBE740236365012084F83500BEE7DD
:102250000120BCE73F8010E038B50446856D90F85A
:102260003400012830D0012084F8340094F835007F
:10227000C0B2012804D0002384F83430022038BDD5
:10228000022084F83500002060652046FFF7FFFE3D
:10229000E26D3F239340AB602268136843F016035E
:1022A00013602268536943F080035361236C23B1A8
:1022B0002268136843F0080313602268136843F030
:1022C000010313600020DAE70220D8E7F0B583B0FD
:1022D000044600230193724B1D68724BA3FB053526
:1022E000AD0A876D3E68C26D08239340334210D01B
:1022F00003681A6812F0040F0BD01A6822F0040267
:102300001A60C26D08239340BB60436D43F0010324
:102310004365E26D01239340334209D0226852693C
:1023200012F0800F04D0BB60636D43F0020363655D
:10233000E26D04239340334209D02268126812F000
:10234000020F04D0BB60636D43F004036365E26D6C
:1023500010239340334224D02268126812F0080FF1
:102360001FD0BB6023681A6812F4802F0DD01B6841
:1023700013F4002F04D1236C9BB12046984710E042
:10238000A36C73B1204698470BE01A6812F4807F63
:1023900003D11A6822F008021A60236C0BB12046A0
:1023A0009847E26D20239340334255D0226812684B
:1023B00012F0100F50D0BB6094F83530DBB2052B13
:1023C0000ED023681A6812F4802F33D01B6813F4E0
:1023D000002F2AD1636C002B3ED0204698473BE06B
:1023E0002268136823F0160313602268536923F0F0
:1023F00080035361236CA3B12268136823F00803A0
:102400001360E26D3F239340BB60002384F83430B7
:10241000012384F83530236D002B3FD020469847A8
:102420003CE0A36C002BE7D1EBE7E36BA3B12046C4
:10243000984711E01A6812F4807F09D11A6822F0D7
:1024400010021A60002384F83430012384F83530F8
:10245000E36B0BB120469847636DFBB1636D13F0DE
:10246000010F17D0052384F835302268136823F054
:1024700001031360019B01330193AB4204D823682D
:102480001B6813F0010FF5D1002384F834300123C9
:1024900084F83530E36C0BB12046984703B0F0BDAB
:1024A0000C000020B5814E1B10B582B01B4B1A6C7E
:1024B00042F080521A641B6C03F080530193019B1D
:1024C000174A136843F48033136000F069F8044638
:1024D000134B5B6813F4803F08D100F061F8001BD8
:1024E000B0F57A7FF4D9032002B010BD0C4A13680E
:1024F00043F40033136000F053F80446084B5B6864
:1025000013F4003F07D100F04BF8001BB0F57A7FC1
:10251000F4D90320E8E70020E6E700BF00380240D6
:102520000070004010B504460E4B18784FF47A73D3
:10253000B3FBF0F30C4A1068B0FBF3F0FEF788FB36
:1025400068B90F2C01D901200AE0002221464FF082
:10255000FF30FEF739FB054B1C60002000E0012036
:1025600010BD00BF060000200C0000200800002065
:1025700008B50320FEF716FB0020FFF7D3FFFEF798
:102580005DFA002008BD0000034A1168034B1B7868
:102590000B441360704700BFB80200200600002003
:1025A000014B1868704700BFB802002038B50446D8
:1025B000FFF7F6FF0546B4F1FF3F02D0044B1B784E
:1025C0001C44FFF7EDFF401BA042FAD338BD00BF0B
:1025D000060000200268136823F0C0031360202364
:1025E000436770470268136823F4907313600268AE
:1025F000936823F00103936020238367002303661D
:10260000704700001346826F202A43D110B504465C
:10261000002B18BF00293FD090F87020012A3DD030
:10262000012280F870204165A0F858300022C2676E
:1026300022228267C26ED2B11949D163C26E194992
:102640001164C26E1849D164C26E0021116501681F
:10265000426D2431C06EFFF7FFFD40B11023E367E8
:10266000002384F8703020236367012011E00020EC
:1026700084F870002268136843F480731360226842
:10268000936843F0010393602268936843F040032A
:10269000936010BD022070470120FAE70220F8E79E
:1026A000AD260008EB260008F726000808B503460B
:1026B000806BDB69B3F5807F13D00023A0F85A301C
:1026C0000268136823F4807313600268936823F030
:1026D000010393600268936823F040039360202312
:1026E0008367FEF73BF908BD704708B5806BFFF7BD
:1026F000FBFF08BD704738B5846B626FA56F236818
:102700009B6813F0800F01D0212A0ED023689B68AC
:1027100013F0400F01D0222D0ED0E36F43F01003D1
:10272000E3672046FFF7E6FF38BD0023A4F85230E8
:102730002046FFF74FFFE9E70023A4F85A30204670
:10274000FFF750FFE9E7000038B5044683680269E7
:10275000134342691343C269134301680868934AEB
:10276000024013430B602268536823F44053E1682E
:102770000B435360A269236A1A4321688B6823F4D0
:10278000306313438B602368894A934219D0894A86
:10279000934229D0884A93423ED0884A934262D0DD
:1027A000874A934271D0874A934200F08380864AD9
:1027B000934200F09480854A934200F0A580102552
:1027C0003AE0834BD3F8903003F00303032B09D88E
:1027D000DFE803F00204AE0601252DE004252BE01E
:1027E000082529E0102527E0794BD3F8903003F035
:1027F0000C030C2B0ED8DFE803F0070D0D0D090DAF
:102800000D0D9D0D0D0D0B00002515E0042513E0A9
:10281000082511E010250FE06D4BD3F8903003F040
:102820003003202B00F0888019D8002B00F0868020
:10283000102B40F085800425E369B3F5004F00F0CC
:10284000AB80082D00F23881DFE815F00701100198
:102850001A01360123013601360136012D01302BD4
:1028600070D10825E8E75A4BD3F8903003F0C00345
:10287000802B69D005D8002B68D0402B68D1042567
:10288000DAE7C02B66D10825D6E7514BD3F8903054
:1028900003F44073B3F5007F5ED006D8002B5DD003
:1028A000B3F5807F5CD10425C6E7B3F5407F59D1ED
:1028B0000825C1E7464BD3F8903003F44063B3F5E5
:1028C000006F51D006D8002B50D0B3F5806F4FD198
:1028D0000425B1E7B3F5406F4CD10825ACE73C4B7C
:1028E000D3F8903003F44053B3F5005F44D006D8DA
:1028F000002B43D0B3F5805F42D104259CE7B3F5AC
:10290000405F3FD1082597E7314BD3F8903003F46F
:102910004043B3F5004F37D005D8BBB3B3F5804F74
:1029200036D1042588E7B3F5404F33D1082583E736
:10293000022581E702257FE702257DE700257BE769
:10294000102579E7102577E7022575E7002573E75D
:10295000102571E710256FE702256DE700256BE76D
:10296000102569E7102567E7022565E7012563E77C
:10297000102561E710255FE702255DE700255BE78D
:10298000102559E7102557E7022555E7002553E79D
:10299000102551E710254FE7082D4DD8DFE805F049
:1029A0001A242F4C384C4C4C430000BFF369FFEF06
:1029B000001001400044004000480040004C00402E
:1029C000005000400014014000780040007C0040AE
:1029D00000380240FEF73AFF6268530803EB4003F9
:1029E000B3FBF2F39BB229E0FEF740FF62685308A5
:1029F00003EB4003B3FBF2F39BB200251EE06268D9
:102A0000374B03EB5203B3FBF2F39BB2002515E007
:102A1000FEF712FE6268530803EB4003B3FBF2F3C8
:102A20009BB200250AE06268530803F58033B3FBCC
:102A3000F2F39BB2002501E001250023A3F1100170
:102A40004FF6EF72914242D89AB222F00F02C3F3CE
:102A5000420313432268D3603CE0FEF7F7FE62684E
:102A600000EB5203B3FBF2F39BB227E0FEF7FEFE4E
:102A7000626800EB5203B3FBF2F39BB200251DE04A
:102A80006268184B03EB5203B3FBF2F39BB20025D1
:102A900014E0FEF7D1FD626800EB5203B3FBF2F3E2
:102AA0009BB200250AE06268530803F50043B3FBBC
:102AB000F2F39BB2002501E001250023A3F11001F0
:102AC0004FF6EF72914204D82268D36002E00125EC
:102AD00000E00125002323666366284638BD00BF59
:102AE0000048E8010024F400436A13F0010F06D007
:102AF0000268536823F40033816A0B435360436ACE
:102B000013F0020F06D00268536823F48033C16AC1
:102B10000B435360436A13F0040F06D002685368F6
:102B200023F48023016B0B435360436A13F0080FB7
:102B300006D00268536823F40043416B0B43536093
:102B4000436A13F0100F06D00268936823F4805391
:102B5000816B0B439360436A13F0200F06D0026829
:102B6000936823F40053C16B0B439360436A13F0E3
:102B7000400F0AD00268536823F48013016C0B43A2
:102B80005360036CB3F5801F0BD0436A13F0800FC2
:102B900006D00268536823F40023816C0B43536012
:102BA00070470268536823F4C003416C0B435360C1
:102BB000EBE72DE9F84305460F4616469946DDF842
:102BC00020802C68E46937EA04030CBF4FF0010C45
:102BD0004FF0000CB4451DD1B8F1FF3FF1D0FFF725
:102BE000DFFCA0EB0900404502D8B8F1000FE8D1A6
:102BF0002A68136823F4D07313602A68936823F05B
:102C00000103936020236B67AB67002385F8703066
:102C1000032000E00020BDE8F8832DE9F04182B0F8
:102C20001E46436F202B55D104460D469046002A80
:102C300018BF002952D090F87030012B50D00123DA
:102C400080F870300023C36721234367FFF7A8FC97
:102C50000746A4F85080A4F85280A368B3F5805FBB
:102C600002D04FF000080FE0236913B34FF00008C3
:102C70000AE015F8012B23689A62B4F8522092B248
:102C8000013A92B2A4F85220B4F852309BB29BB1F0
:102C900000963B46002280212046FFF78AFF08BBB2
:102CA000002DE6D138F8023B2268C3F30803936293
:102CB000E3E7A8460025E7E700963B4600224021CF
:102CC0002046FFF776FF78B920236367002384F856
:102CD000703000E0022002B0BDE8F0810120FAE788
:102CE0000220F8E70320F6E70320F4E710B582B0EE
:102CF00004460023C367FFF753FC23681B6813F0E7
:102D0000080F07D120236367A367002084F87000B1
:102D100002B010BD6FF07E430093034600224FF4D3
:102D200000112046FFF745FF0028EBD00320EFE716
:102D300068B310B50446436F03B324236367226866
:102D4000136823F0010313602046FFF7FDFC012800
:102D500013D0636ABBB92268536823F4904353606D
:102D60002268936823F02A0393602268136843F073
:102D7000010313602046FFF7B9FF10BD80F87030E3
:102D8000FDF792FED9E72046FFF7AEFEE3E701200C
:102D90007047000010B40F4AD2F8883043F4700333
:102DA000C2F888300C4B196841F00101196000200D
:102DB00098601C68094921401960094959601968DF
:102DC00021F480211960D8604FF0006393605DF8B2
:102DD000044B704700ED00E000380240FFFFF6FEB4
:102DE00010300024DFF834D0002103E00C4B5B5896
:102DF000435004310B480C4B42189A42F6D30B4A0D
:102E000002E0002342F8043B094B9A42F9D3FFF752
:102E1000C1FF00F011F8FDF72BFD704700000820FE
:102E2000AC3700080000002074000020740000206F
:102E3000D0020020FEE7000070B50D4D0D4C641B64
:102E4000A4100026A64209D10B4D0C4C00F058FCF2
:102E5000641BA4100026A64205D170BD55F8043BA2
:102E600098470136EEE755F8043B98470136F2E7FC
:102E7000A4370008A4370008A4370008A8370008C2
:102E800002440346934200D1704703F8011BF9E75F
:102E90000EB400B59CB01DAB029006906FF00041DF
:102EA000094807910491094953F8042B05910068DA
:102EB000019302A900F068F8029B00221A701CB06E
:102EC0005DF804EB03B07047100000200802FFFF1C
:102ED0002DE9F0478E689E4282460C4690461F467A
:102EE00038D88A8912F4906F32D025680969A5EB29
:102EF0000109656905EB450505EBD57501334B44C3
:102F00006D109D4238BF1D46530531D5294600F04E
:102F100043FB064650B90C23CAF80030A38943F09E
:102F20004003A3814FF0FF30BDE8F08721694A4696
:102F300000F0BEFAA38923F4906343F08003A381D9
:102F4000266165614E44A5EB09052660A5603E46F5
:102F5000BE4200D93E4620683246414600F0B6FAED
:102F6000A3689B1BA3602368334423600020DBE736
:102F70002A4600F06BFB06460028E1D12169504645
:102F800000F0BEFAC7E700002DE9F04F98468B89A4
:102F90001B069DB007460D4614460ED50B6963B956
:102FA000402100F0F9FA2860286120B90C233B6029
:102FB0004FF0FF30D1E040236B61002309932023C1
:102FC0008DF82930CDF80C803023DFF8A8818DF8FA
:102FD0002A304FF0010923469A4613F8012B0AB113
:102FE000252AF9D1BAEB040B0BD05B4622462946C1
:102FF0003846FFF76DFF013000F0AA80099A5A4465
:1030000009929AF80030002B00F0A28000234FF0C4
:10301000FF32CDE905230AF1010A049307938DF8E5
:1030200053301A935446052214F8011B5148FDF7FA
:103030000FF9049AD8B9D00644BF20238DF8533035
:10304000110744BF2B238DF853309AF800302A2BF8
:1030500015D0079A544600204FF00A0C214611F86B
:10306000013B303B092B4ED9B0B1079214E0A0EBE5
:10307000080309FA03F313430493A246D2E7039B20
:10308000191D1B680391002BBBBF5B4242F002027B
:1030900007930793B8BF049223782E2B0CD1637843
:1030A0002A2B35D1039B1A1D1B680392002BB8BF36
:1030B0004FF0FF3302340593DFF8C8A021780322D4
:1030C0005046FDF7C5F840B14023A0EB0A0003FAD3
:1030D00000F0049B03430134049314F8011B2648B9
:1030E0008DF828100622FDF7B3F8002838D0234BBE
:1030F0001BBB039B073323F0070308330393099B90
:103100003344099367E70CFB02320C460120A5E724
:1031100000230134059319464FF00A0C204610F89D
:10312000012B303A092A03D9002BC5D00591C3E7FA
:103130000CFB012104460123F0E703AB00932A4670
:103140000F4B04A93846AFF30080421C0646D6D187
:10315000AB895B063FF52CAF09981DB0BDE8F08F39
:1031600003AB00932A46064B04A9384600F07AF8D0
:10317000EBE700BF68370008723700080000000066
:10318000D12E00086E3700082DE9F0471646994603
:103190008A680B69DDF820809342B8BF134633601C
:1031A00091F8432007460C460AB101333360236887
:1031B000990642BF336802333360256815F006056F
:1031C00006D104F1190AE36832689B1AAB4226DC87
:1031D00094F84320131E226818BF012392062BD4B3
:1031E00004F1430249463846C04701301ED02368E7
:1031F000E568326803F00603042B08BFAD1AA36824
:1032000022690CBF25EAE57500259342C4BF9B1ACD
:10321000ED1800261A34B5421AD1002008E0012327
:10322000524649463846C047013003D14FF0FF307F
:10323000BDE8F0870135C6E7E1185A1C302081F857
:103240004300224494F8451082F843100233C7E744
:103250000123224649463846C0470130E6D00136B0
:10326000D9E700002DE9FF470F7E0C9D782F91468E
:1032700080460C469A4601F1430207D8622F0AD8CD
:10328000002F00F0D880582F00F0A38004F14205F1
:1032900084F842703AE0A7F16303152BF6D801A138
:1032A00051F823F0FD320008113300088D32000878
:1032B0008D3200088D3200088D320008113300086D
:1032C0008D3200088D3200088D3200088D320008E2
:1032D0001D34000841330008FF3300088D32000818
:1032E0008D3200083F3400088D3200084133000859
:1032F0008D3200088D320008073400082B681A1D33
:103300001B682A6004F1420584F842300123A3E0DF
:1033100020682968060601F104030AD50E682B60AF
:10332000002E03DA2D23764284F843305E480A23C8
:1033300019E00E682B6010F0400F18BF36B2EFE7AF
:103340002B682068191D2960010601D51E6802E05E
:103350004606FBD51E8854486F2F0CBF08230A234E
:10336000002184F843106568A560002DA2BF216884
:1033700021F0040121600EB9002D4DD01546B6FB99
:10338000F3F103FB1167C75D05F8017D3746BB42CA
:103390000E46F4D9082B0BD12368DE0708D5236924
:1033A00061689942DEBF302305F8013C05F1FF3525
:1033B000521B2261CDF800A04B4603AA214640468D
:1033C000FFF7E2FE01304CD14FF0FF3004B0BDE812
:1033D000F087354881F845702968236851F8046BF7
:1033E00029601D0614D5DF0744BF43F02003236086
:1033F0001EB9236823F0200323601023B0E723685D
:1034000043F0200323607823284884F84530E3E71D
:10341000590648BFB6B2E6E71546BBE72B682668F3
:103420006169181D286035061B6801D5196002E026
:103430007006FBD51980002323611546BAE72B6877
:103440001A1D2A601D68626800212846FCF700FFEB
:1034500008B1401B606063682361002384F8433037
:10346000A8E723692A4649464046D0470130ABD0F9
:1034700023689B0713D4E068039B9842B8BF1846A3
:10348000A4E70123324649464046D04701309BD04D
:103490000135E36803995B1AAB42F2DCEBE70025E8
:1034A00004F11906F5E700BF793700088A370008EC
:1034B0000A44914200F1FF3300D1704710B511F872
:1034C000014B03F8014F9142F9D110BD884210B56C
:1034D00001EB020402D98442234607D8431EA142CD
:1034E00008D011F8012B03F8012FF8E70244014638
:1034F0008A4200D110BD13F8014D02F8014DF7E7E3
:1035000037B5002944D051F8043C0190002BA1F1BB
:103510000404B8BFE41800F0CFF81E4A01981368FD
:1035200033B96360146003B0BDE8304000F0CAB83E
:10353000A34208D9256861198B4201BF19685B68ED
:1035400049192160EDE71A465B680BB1A342FAD92D
:1035500011685518A5420BD1246821445418A34280
:103560001160E0D11C685B68536021441160DAE7A8
:1035700002D90C230360D6E7256861198B4204BF8A
:1035800019685B68636004BF491921605460CAE729
:1035900003B030BDBC020020F8B5CD1C25F00305FA
:1035A00008350C2D38BF0C25002D064601DBA9423D
:1035B00003D90C2333600020F8BD00F07DF82149C9
:1035C0000A6814469CB9204F3B6823B9214630460F
:1035D00000F062F838602946304600F05DF8431C80
:1035E00023D10C233360304600F06CF8E3E7236806
:1035F0005B1B17D40B2B03D923601C44256004E00C
:103600006368A2420CBF0B605360304600F05AF86A
:1036100004F10B00231D20F00700C21ACCD01B1AA6
:10362000A350C9E722466468CCE7C41C24F0030415
:10363000A042E3D0211A304600F02EF80130DDD14F
:10364000CFE700BFBC020020C0020020F8B507464B
:1036500014460E4621B9BDE8F8401146FFF79CBF5D
:1036600022B9FFF74DFF25462846F8BD00F030F897
:10367000A0420FD221463846FFF78EFF05460028AC
:10368000F2D031462246FFF713FF31463846FFF7A6
:1036900037FFE9E73546E7E738B5064D002304462E
:1036A00008462B6000F01EF8431C02D12B6803B1C2
:1036B000236038BDC4020020014800F011B800BFEB
:1036C000C8020020014800F00CB800BFC80200206A
:1036D00051F8043C181F002BBCBF0B58C018704792
:1036E00070477047044A05491368002B08BF0B4612
:1036F0001844106018467047CC020020D002002009
:10370000F8B500BFF8BC08BC9E467047F8B500BFCE
:08371000F8BC08BC9E4670479E
:10371800476F546F4D656173204F4B2100000000C7
:1037280064656C6179203D2025640000486561640A
:1037380065725F4964656E74203D20256400000051
:103748000006101600061016000000000000000019
:10375800010203040607080900000000010203042F
:10376800232D302B2000686C4C0065666745464762
:1037780000303132333435363738394142434445E5
:103788004600303132333435363738396162636454
:043798006566000062
:08379C0084CBFF7F0100000057
:0437A40025020008F2
:0437A8000102000812
:1037AC00FAFF1000F1010100100000000024F400E9
:1037BC0014000020000000000000000000000000C9
:1037CC0000000000000000000000000000000000ED
:1037DC0000000000000000000000000000000000DD
:1037EC0000000000000000000000000000000000CD
:1037FC0000000000000000000000000000000000BD
:10380C0000000000000000000000000000000000AC
:04381C0000000000A8
:0400000508002DE5DD
:00000001FF
